{
  "address": "0x3c195C14D329C6B91Fd241d09a960d5A31eA8742",
  "abi": [
    {
      "inputs": [
        {
          "internalType": "address",
          "name": "_moonToken",
          "type": "address"
        }
      ],
      "stateMutability": "nonpayable",
      "type": "constructor"
    },
    {
      "inputs": [],
      "name": "Faucet_LockTimeNotExpired",
      "type": "error"
    },
    {
      "inputs": [],
      "name": "Faucet_MXCEmpty",
      "type": "error"
    },
    {
      "inputs": [],
      "name": "Faucet_MoonEmpty",
      "type": "error"
    },
    {
      "inputs": [],
      "name": "Faucet_NotOwner",
      "type": "error"
    },
    {
      "inputs": [],
      "name": "Faucet_ReqMultiTimes",
      "type": "error"
    },
    {
      "anonymous": false,
      "inputs": [
        {
          "indexed": true,
          "internalType": "address",
          "name": "Receiver",
          "type": "address"
        }
      ],
      "name": "SendMoon",
      "type": "event"
    },
    {
      "anonymous": false,
      "inputs": [
        {
          "indexed": true,
          "internalType": "address",
          "name": "Receiver",
          "type": "address"
        }
      ],
      "name": "SendMxc",
      "type": "event"
    },
    {
      "inputs": [
        {
          "internalType": "address",
          "name": "",
          "type": "address"
        }
      ],
      "name": "lockTime",
      "outputs": [
        {
          "internalType": "uint256",
          "name": "",
          "type": "uint256"
        }
      ],
      "stateMutability": "view",
      "type": "function"
    },
    {
      "inputs": [],
      "name": "moonAllowed",
      "outputs": [
        {
          "internalType": "uint256",
          "name": "",
          "type": "uint256"
        }
      ],
      "stateMutability": "view",
      "type": "function"
    },
    {
      "inputs": [],
      "name": "moonToken",
      "outputs": [
        {
          "internalType": "address",
          "name": "",
          "type": "address"
        }
      ],
      "stateMutability": "view",
      "type": "function"
    },
    {
      "inputs": [],
      "name": "mxcAllowed",
      "outputs": [
        {
          "internalType": "uint256",
          "name": "",
          "type": "uint256"
        }
      ],
      "stateMutability": "view",
      "type": "function"
    },
    {
      "inputs": [],
      "name": "owner",
      "outputs": [
        {
          "internalType": "address",
          "name": "",
          "type": "address"
        }
      ],
      "stateMutability": "view",
      "type": "function"
    },
    {
      "inputs": [
        {
          "internalType": "address",
          "name": "recipient",
          "type": "address"
        }
      ],
      "name": "requestMXC",
      "outputs": [],
      "stateMutability": "nonpayable",
      "type": "function"
    },
    {
      "inputs": [
        {
          "internalType": "address",
          "name": "recipient",
          "type": "address"
        }
      ],
      "name": "requestMoon",
      "outputs": [],
      "stateMutability": "nonpayable",
      "type": "function"
    },
    {
      "inputs": [
        {
          "internalType": "address",
          "name": "",
          "type": "address"
        }
      ],
      "name": "requestedMoon",
      "outputs": [
        {
          "internalType": "bool",
          "name": "",
          "type": "bool"
        }
      ],
      "stateMutability": "view",
      "type": "function"
    },
    {
      "inputs": [
        {
          "internalType": "uint256",
          "name": "_newMoonAllowed",
          "type": "uint256"
        }
      ],
      "name": "setMoonallowed",
      "outputs": [],
      "stateMutability": "nonpayable",
      "type": "function"
    },
    {
      "inputs": [
        {
          "internalType": "uint256",
          "name": "_newMxcAllowed",
          "type": "uint256"
        }
      ],
      "name": "setMxcAllowed",
      "outputs": [],
      "stateMutability": "nonpayable",
      "type": "function"
    },
    {
      "inputs": [
        {
          "internalType": "address",
          "name": "_newOwner",
          "type": "address"
        }
      ],
      "name": "setOwner",
      "outputs": [],
      "stateMutability": "nonpayable",
      "type": "function"
    },
    {
      "stateMutability": "payable",
      "type": "receive"
    }
  ],
  "transactionHash": "0x34da4268b0e2462be98b8dea9cf6b203384dbbc7bee410a675e197feafd543e9",
  "args": [
    "0x6c3c72297C448A4BAa6Fc45552657Ad68378E3E1"
  ],
  "numDeployments": 1,
  "solcInputHash": "85df37941f0a9eff944f6b0d5eb7ff11",
  "bytecode": "0x6080604052670de0b6b3a764000060025568056bc75e2d6310000060035534801561002957600080fd5b50604051610d4c380380610d4c833981810160405281019061004b9190610135565b806000806101000a81548173ffffffffffffffffffffffffffffffffffffffff021916908373ffffffffffffffffffffffffffffffffffffffff16021790555033600160006101000a81548173ffffffffffffffffffffffffffffffffffffffff021916908373ffffffffffffffffffffffffffffffffffffffff16021790555050610162565b600080fd5b600073ffffffffffffffffffffffffffffffffffffffff82169050919050565b6000610102826100d7565b9050919050565b610112816100f7565b811461011d57600080fd5b50565b60008151905061012f81610109565b92915050565b60006020828403121561014b5761014a6100d2565b5b600061015984828501610120565b91505092915050565b610bdb806101716000396000f3fe6080604052600436106100a05760003560e01c80638da5cb5b116100645780638da5cb5b1461017d5780639206ce6f146101a8578063924fcda6146101d1578063a4beda63146101fa578063a99c6cf614610237578063bf0bc7b114610274576100a7565b806302ce1858146100ac57806304dd1ee5146100d757806313af4035146101005780631c5a4f51146101295780633468145a14610152576100a7565b366100a757005b600080fd5b3480156100b857600080fd5b506100c161029f565b6040516100ce9190610943565b60405180910390f35b3480156100e357600080fd5b506100fe60048036038101906100f991906109c1565b6102a5565b005b34801561010c57600080fd5b50610127600480360381019061012291906109c1565b610520565b005b34801561013557600080fd5b50610150600480360381019061014b9190610a1a565b6105eb565b005b34801561015e57600080fd5b5061016761067c565b6040516101749190610a56565b60405180910390f35b34801561018957600080fd5b506101926106a0565b60405161019f9190610a56565b60405180910390f35b3480156101b457600080fd5b506101cf60048036038101906101ca9190610a1a565b6106c6565b005b3480156101dd57600080fd5b506101f860048036038101906101f391906109c1565b610757565b005b34801561020657600080fd5b50610221600480360381019061021c91906109c1565b6108ec565b60405161022e9190610943565b60405180910390f35b34801561024357600080fd5b5061025e600480360381019061025991906109c1565b610904565b60405161026b9190610a8c565b60405180910390f35b34801561028057600080fd5b50610289610924565b6040516102969190610943565b60405180910390f35b60025481565b60008060009054906101000a900473ffffffffffffffffffffffffffffffffffffffff169050600460008373ffffffffffffffffffffffffffffffffffffffff1673ffffffffffffffffffffffffffffffffffffffff16815260200190815260200160002060009054906101000a900460ff161561034f576040517f96058da400000000000000000000000000000000000000000000000000000000815260040160405180910390fd5b6002548173ffffffffffffffffffffffffffffffffffffffff166370a08231306040518263ffffffff1660e01b815260040161038b9190610a56565b602060405180830381865afa1580156103a8573d6000803e3d6000fd5b505050506040513d601f19601f820116820180604052508101906103cc9190610abc565b1015610404576040517f945e34c200000000000000000000000000000000000000000000000000000000815260040160405180910390fd5b8073ffffffffffffffffffffffffffffffffffffffff16638f17c3e3836040518263ffffffff1660e01b815260040161043d9190610a56565b6020604051808303816000875af115801561045c573d6000803e3d6000fd5b505050506040513d601f19601f820116820180604052508101906104809190610b15565b506001600460008473ffffffffffffffffffffffffffffffffffffffff1673ffffffffffffffffffffffffffffffffffffffff16815260200190815260200160002060006101000a81548160ff0219169083151502179055508173ffffffffffffffffffffffffffffffffffffffff167fc957cd8ae5c96d235f89f35e9b0af6fbacb1cd9aba64cfbf7ca362865bb7954160405160405180910390a25050565b600160009054906101000a900473ffffffffffffffffffffffffffffffffffffffff1673ffffffffffffffffffffffffffffffffffffffff163373ffffffffffffffffffffffffffffffffffffffff16146105a7576040517f43bee21800000000000000000000000000000000000000000000000000000000815260040160405180910390fd5b80600160006101000a81548173ffffffffffffffffffffffffffffffffffffffff021916908373ffffffffffffffffffffffffffffffffffffffff16021790555050565b600160009054906101000a900473ffffffffffffffffffffffffffffffffffffffff1673ffffffffffffffffffffffffffffffffffffffff163373ffffffffffffffffffffffffffffffffffffffff1614610672576040517f43bee21800000000000000000000000000000000000000000000000000000000815260040160405180910390fd5b8060028190555050565b60008054906101000a900473ffffffffffffffffffffffffffffffffffffffff1681565b600160009054906101000a900473ffffffffffffffffffffffffffffffffffffffff1681565b600160009054906101000a900473ffffffffffffffffffffffffffffffffffffffff1673ffffffffffffffffffffffffffffffffffffffff163373ffffffffffffffffffffffffffffffffffffffff161461074d576040517f43bee21800000000000000000000000000000000000000000000000000000000815260040160405180910390fd5b8060038190555050565b600560008273ffffffffffffffffffffffffffffffffffffffff1673ffffffffffffffffffffffffffffffffffffffff1681526020019081526020016000205442116107cf576040517faeec25e900000000000000000000000000000000000000000000000000000000815260040160405180910390fd5b60035447101561080b576040517fb4bbd24000000000000000000000000000000000000000000000000000000000815260040160405180910390fd5b8073ffffffffffffffffffffffffffffffffffffffff166108fc6003549081150290604051600060405180830381858888f19350505050158015610853573d6000803e3d6000fd5b5062015180426108639190610b71565b600560008373ffffffffffffffffffffffffffffffffffffffff1673ffffffffffffffffffffffffffffffffffffffff168152602001908152602001600020819055508073ffffffffffffffffffffffffffffffffffffffff167f4e43bdd22a98599a042b44a90ee34627ff83c0deec3bb1736b9e430e36cc88ed60405160405180910390a250565b60056020528060005260406000206000915090505481565b60046020528060005260406000206000915054906101000a900460ff1681565b60035481565b6000819050919050565b61093d8161092a565b82525050565b60006020820190506109586000830184610934565b92915050565b600080fd5b600073ffffffffffffffffffffffffffffffffffffffff82169050919050565b600061098e82610963565b9050919050565b61099e81610983565b81146109a957600080fd5b50565b6000813590506109bb81610995565b92915050565b6000602082840312156109d7576109d661095e565b5b60006109e5848285016109ac565b91505092915050565b6109f78161092a565b8114610a0257600080fd5b50565b600081359050610a14816109ee565b92915050565b600060208284031215610a3057610a2f61095e565b5b6000610a3e84828501610a05565b91505092915050565b610a5081610983565b82525050565b6000602082019050610a6b6000830184610a47565b92915050565b60008115159050919050565b610a8681610a71565b82525050565b6000602082019050610aa16000830184610a7d565b92915050565b600081519050610ab6816109ee565b92915050565b600060208284031215610ad257610ad161095e565b5b6000610ae084828501610aa7565b91505092915050565b610af281610a71565b8114610afd57600080fd5b50565b600081519050610b0f81610ae9565b92915050565b600060208284031215610b2b57610b2a61095e565b5b6000610b3984828501610b00565b91505092915050565b7f4e487b7100000000000000000000000000000000000000000000000000000000600052601160045260246000fd5b6000610b7c8261092a565b9150610b878361092a565b9250828201905080821115610b9f57610b9e610b42565b5b9291505056fea26469706673582212205f9f04bd018c3c32ac9b864624ee9a59ddadb8fe0c0947835e48d66a73b612fe64736f6c63430008110033",
  "devdoc": {
    "kind": "dev",
    "methods": {},
    "version": 1
  },
  "userdoc": {
    "kind": "user",
    "methods": {},
    "version": 1
  },
  "storageLayout": {
    "storage": [
      {
        "astId": 14,
        "contract": "contracts/Faucet.sol:Faucet",
        "label": "moonToken",
        "offset": 0,
        "slot": "0",
        "type": "t_address"
      },
      {
        "astId": 16,
        "contract": "contracts/Faucet.sol:Faucet",
        "label": "owner",
        "offset": 0,
        "slot": "1",
        "type": "t_address"
      },
      {
        "astId": 19,
        "contract": "contracts/Faucet.sol:Faucet",
        "label": "moonAllowed",
        "offset": 0,
        "slot": "2",
        "type": "t_uint256"
      },
      {
        "astId": 24,
        "contract": "contracts/Faucet.sol:Faucet",
        "label": "mxcAllowed",
        "offset": 0,
        "slot": "3",
        "type": "t_uint256"
      },
      {
        "astId": 28,
        "contract": "contracts/Faucet.sol:Faucet",
        "label": "requestedMoon",
        "offset": 0,
        "slot": "4",
        "type": "t_mapping(t_address,t_bool)"
      },
      {
        "astId": 32,
        "contract": "contracts/Faucet.sol:Faucet",
        "label": "lockTime",
        "offset": 0,
        "slot": "5",
        "type": "t_mapping(t_address,t_uint256)"
      }
    ],
    "types": {
      "t_address": {
        "encoding": "inplace",
        "label": "address",
        "numberOfBytes": "20"
      },
      "t_bool": {
        "encoding": "inplace",
        "label": "bool",
        "numberOfBytes": "1"
      },
      "t_mapping(t_address,t_bool)": {
        "encoding": "mapping",
        "key": "t_address",
        "label": "mapping(address => bool)",
        "numberOfBytes": "32",
        "value": "t_bool"
      },
      "t_mapping(t_address,t_uint256)": {
        "encoding": "mapping",
        "key": "t_address",
        "label": "mapping(address => uint256)",
        "numberOfBytes": "32",
        "value": "t_uint256"
      },
      "t_uint256": {
        "encoding": "inplace",
        "label": "uint256",
        "numberOfBytes": "32"
      }
    }
  }
}