{
  "address": "0xCf7Ed3AccA5a467e9e704C703E8D87F634fB0Fc9",
  "abi": [
    {
      "inputs": [],
      "stateMutability": "nonpayable",
      "type": "constructor"
    },
    {
      "anonymous": false,
      "inputs": [
        {
          "indexed": false,
          "internalType": "address",
          "name": "previousAdmin",
          "type": "address"
        },
        {
          "indexed": false,
          "internalType": "address",
          "name": "newAdmin",
          "type": "address"
        }
      ],
      "name": "AdminChanged",
      "type": "event"
    },
    {
      "anonymous": false,
      "inputs": [
        {
          "indexed": true,
          "internalType": "address",
          "name": "owner",
          "type": "address"
        },
        {
          "indexed": true,
          "internalType": "address",
          "name": "spender",
          "type": "address"
        },
        {
          "indexed": false,
          "internalType": "uint256",
          "name": "amount",
          "type": "uint256"
        }
      ],
      "name": "Approval",
      "type": "event"
    },
    {
      "anonymous": false,
      "inputs": [
        {
          "indexed": true,
          "internalType": "address",
          "name": "beacon",
          "type": "address"
        }
      ],
      "name": "BeaconUpgraded",
      "type": "event"
    },
    {
      "anonymous": false,
      "inputs": [
        {
          "indexed": false,
          "internalType": "uint8",
          "name": "version",
          "type": "uint8"
        }
      ],
      "name": "Initialized",
      "type": "event"
    },
    {
      "anonymous": false,
      "inputs": [
        {
          "indexed": true,
          "internalType": "address",
          "name": "from",
          "type": "address"
        },
        {
          "indexed": true,
          "internalType": "address",
          "name": "to",
          "type": "address"
        },
        {
          "indexed": false,
          "internalType": "uint256",
          "name": "amount",
          "type": "uint256"
        }
      ],
      "name": "Transfer",
      "type": "event"
    },
    {
      "anonymous": false,
      "inputs": [
        {
          "indexed": true,
          "internalType": "address",
          "name": "implementation",
          "type": "address"
        }
      ],
      "name": "Upgraded",
      "type": "event"
    },
    {
      "inputs": [],
      "name": "DOMAIN_SEPARATOR",
      "outputs": [
        {
          "internalType": "bytes32",
          "name": "",
          "type": "bytes32"
        }
      ],
      "stateMutability": "view",
      "type": "function"
    },
    {
      "inputs": [
        {
          "internalType": "address",
          "name": "",
          "type": "address"
        },
        {
          "internalType": "address",
          "name": "",
          "type": "address"
        }
      ],
      "name": "allowance",
      "outputs": [
        {
          "internalType": "uint256",
          "name": "",
          "type": "uint256"
        }
      ],
      "stateMutability": "view",
      "type": "function"
    },
    {
      "inputs": [
        {
          "internalType": "address",
          "name": "spender",
          "type": "address"
        },
        {
          "internalType": "uint256",
          "name": "amount",
          "type": "uint256"
        }
      ],
      "name": "approve",
      "outputs": [
        {
          "internalType": "bool",
          "name": "",
          "type": "bool"
        }
      ],
      "stateMutability": "nonpayable",
      "type": "function"
    },
    {
      "inputs": [
        {
          "internalType": "address",
          "name": "",
          "type": "address"
        }
      ],
      "name": "balanceOf",
      "outputs": [
        {
          "internalType": "uint256",
          "name": "",
          "type": "uint256"
        }
      ],
      "stateMutability": "view",
      "type": "function"
    },
    {
      "inputs": [],
      "name": "decimals",
      "outputs": [
        {
          "internalType": "uint8",
          "name": "",
          "type": "uint8"
        }
      ],
      "stateMutability": "view",
      "type": "function"
    },
    {
      "inputs": [
        {
          "internalType": "address",
          "name": "initialOwner",
          "type": "address"
        }
      ],
      "name": "initialize",
      "outputs": [],
      "stateMutability": "nonpayable",
      "type": "function"
    },
    {
      "inputs": [
        {
          "internalType": "string",
          "name": "_name",
          "type": "string"
        },
        {
          "internalType": "string",
          "name": "_symbol",
          "type": "string"
        },
        {
          "internalType": "uint8",
          "name": "_decimals",
          "type": "uint8"
        }
      ],
      "name": "initializeERC20",
      "outputs": [],
      "stateMutability": "nonpayable",
      "type": "function"
    },
    {
      "inputs": [
        {
          "internalType": "address",
          "name": "to",
          "type": "address"
        },
        {
          "internalType": "uint256",
          "name": "amount",
          "type": "uint256"
        }
      ],
      "name": "mint",
      "outputs": [],
      "stateMutability": "nonpayable",
      "type": "function"
    },
    {
      "inputs": [],
      "name": "name",
      "outputs": [
        {
          "internalType": "string",
          "name": "",
          "type": "string"
        }
      ],
      "stateMutability": "view",
      "type": "function"
    },
    {
      "inputs": [
        {
          "internalType": "address",
          "name": "",
          "type": "address"
        }
      ],
      "name": "nonces",
      "outputs": [
        {
          "internalType": "uint256",
          "name": "",
          "type": "uint256"
        }
      ],
      "stateMutability": "view",
      "type": "function"
    },
    {
      "inputs": [
        {
          "internalType": "address",
          "name": "owner",
          "type": "address"
        },
        {
          "internalType": "address",
          "name": "spender",
          "type": "address"
        },
        {
          "internalType": "uint256",
          "name": "value",
          "type": "uint256"
        },
        {
          "internalType": "uint256",
          "name": "deadline",
          "type": "uint256"
        },
        {
          "internalType": "uint8",
          "name": "v",
          "type": "uint8"
        },
        {
          "internalType": "bytes32",
          "name": "r",
          "type": "bytes32"
        },
        {
          "internalType": "bytes32",
          "name": "s",
          "type": "bytes32"
        }
      ],
      "name": "permit",
      "outputs": [],
      "stateMutability": "nonpayable",
      "type": "function"
    },
    {
      "inputs": [],
      "name": "proxiableUUID",
      "outputs": [
        {
          "internalType": "bytes32",
          "name": "",
          "type": "bytes32"
        }
      ],
      "stateMutability": "view",
      "type": "function"
    },
    {
      "inputs": [],
      "name": "s_admin",
      "outputs": [
        {
          "internalType": "address",
          "name": "",
          "type": "address"
        }
      ],
      "stateMutability": "view",
      "type": "function"
    },
    {
      "inputs": [],
      "name": "symbol",
      "outputs": [
        {
          "internalType": "string",
          "name": "",
          "type": "string"
        }
      ],
      "stateMutability": "view",
      "type": "function"
    },
    {
      "inputs": [],
      "name": "totalSupply",
      "outputs": [
        {
          "internalType": "uint256",
          "name": "",
          "type": "uint256"
        }
      ],
      "stateMutability": "view",
      "type": "function"
    },
    {
      "inputs": [
        {
          "internalType": "address",
          "name": "to",
          "type": "address"
        },
        {
          "internalType": "uint256",
          "name": "amount",
          "type": "uint256"
        }
      ],
      "name": "transfer",
      "outputs": [
        {
          "internalType": "bool",
          "name": "",
          "type": "bool"
        }
      ],
      "stateMutability": "nonpayable",
      "type": "function"
    },
    {
      "inputs": [
        {
          "internalType": "address",
          "name": "from",
          "type": "address"
        },
        {
          "internalType": "address",
          "name": "to",
          "type": "address"
        },
        {
          "internalType": "uint256",
          "name": "amount",
          "type": "uint256"
        }
      ],
      "name": "transferFrom",
      "outputs": [
        {
          "internalType": "bool",
          "name": "",
          "type": "bool"
        }
      ],
      "stateMutability": "nonpayable",
      "type": "function"
    },
    {
      "inputs": [
        {
          "internalType": "address",
          "name": "newImplementation",
          "type": "address"
        }
      ],
      "name": "upgradeTo",
      "outputs": [],
      "stateMutability": "nonpayable",
      "type": "function"
    },
    {
      "inputs": [
        {
          "internalType": "address",
          "name": "newImplementation",
          "type": "address"
        },
        {
          "internalType": "bytes",
          "name": "data",
          "type": "bytes"
        }
      ],
      "name": "upgradeToAndCall",
      "outputs": [],
      "stateMutability": "payable",
      "type": "function"
    }
  ],
  "transactionHash": "0xdea694a5ed5cdbb5d33c79315e8d997b02e8eb8dc24b768b7869380f10ddf111",
  "args": [],
  "numDeployments": 1,
  "solcInputHash": "39deed7cb154fcce40e9312a4c622856",
  "bytecode": "0x60a06040523073ffffffffffffffffffffffffffffffffffffffff1660809073ffffffffffffffffffffffffffffffffffffffff168152503480156200004457600080fd5b5060008060019054906101000a900460ff16159050808015620000775750600160008054906101000a900460ff1660ff16105b80620000b3575062000094306200019660201b620015651760201c565b158015620000b25750600160008054906101000a900460ff1660ff16145b5b620000f5576040517f08c379a0000000000000000000000000000000000000000000000000000000008152600401620000ec9062000240565b60405180910390fd5b60016000806101000a81548160ff021916908360ff160217905550801562000133576001600060016101000a81548160ff0219169083151502179055505b80156200018f5760008060016101000a81548160ff0219169083151502179055507f7f26b83ff96e1f2b6a682f133852f6798a09c465da95921460cefb38474024986001604051620001869190620002bc565b60405180910390a15b50620002d9565b6000808273ffffffffffffffffffffffffffffffffffffffff163b119050919050565b600082825260208201905092915050565b7f496e697469616c697a61626c653a20636f6e747261637420697320616c72656160008201527f647920696e697469616c697a6564000000000000000000000000000000000000602082015250565b600062000228602e83620001b9565b91506200023582620001ca565b604082019050919050565b600060208201905081810360008301526200025b8162000219565b9050919050565b6000819050919050565b600060ff82169050919050565b6000819050919050565b6000620002a46200029e620002988462000262565b62000279565b6200026c565b9050919050565b620002b68162000283565b82525050565b6000602082019050620002d36000830184620002ab565b92915050565b6080516130b66200031160003960008181610a5201528181610ae001528181610c7801528181610d060152610db601526130b66000f3fe6080604052600436106101145760003560e01c806340c10f19116100a057806395d89b411161006457806395d89b41146103a6578063a9059cbb146103d1578063c4d66de81461040e578063d505accf14610437578063dd62ed3e1461046057610114565b806340c10f19146102bc5780634f1ef286146102e557806352d1902d1461030157806370a082311461032c5780637ecebe001461036957610114565b806323b872dd116100e757806323b872dd146101d75780632bc7bdd214610214578063313ce5671461023d5780633644e515146102685780633659cfe61461029357610114565b806306fdde0314610119578063095ea7b314610144578063132788cf1461018157806318160ddd146101ac575b600080fd5b34801561012557600080fd5b5061012e61049d565b60405161013b9190611cbb565b60405180910390f35b34801561015057600080fd5b5061016b60048036038101906101669190611d85565b61052b565b6040516101789190611de0565b60405180910390f35b34801561018d57600080fd5b5061019661061d565b6040516101a39190611e0a565b60405180910390f35b3480156101b857600080fd5b506101c1610643565b6040516101ce9190611e34565b60405180910390f35b3480156101e357600080fd5b506101fe60048036038101906101f99190611e4f565b610649565b60405161020b9190611de0565b60405180910390f35b34801561022057600080fd5b5061023b60048036038101906102369190612010565b610893565b005b34801561024957600080fd5b50610252610a1c565b60405161025f91906120aa565b60405180910390f35b34801561027457600080fd5b5061027d610a2f565b60405161028a91906120de565b60405180910390f35b34801561029f57600080fd5b506102ba60048036038101906102b591906120f9565b610a50565b005b3480156102c857600080fd5b506102e360048036038101906102de9190611d85565b610bd8565b005b6102ff60048036038101906102fa91906121c7565b610c76565b005b34801561030d57600080fd5b50610316610db2565b60405161032391906120de565b60405180910390f35b34801561033857600080fd5b50610353600480360381019061034e91906120f9565b610e6b565b6040516103609190611e34565b60405180910390f35b34801561037557600080fd5b50610390600480360381019061038b91906120f9565b610e83565b60405161039d9190611e34565b60405180910390f35b3480156103b257600080fd5b506103bb610e9b565b6040516103c89190611cbb565b60405180910390f35b3480156103dd57600080fd5b506103f860048036038101906103f39190611d85565b610f29565b6040516104059190611de0565b60405180910390f35b34801561041a57600080fd5b50610435600480360381019061043091906120f9565b61103d565b005b34801561044357600080fd5b5061045e6004803603810190610459919061224f565b611247565b005b34801561046c57600080fd5b50610487600480360381019061048291906122f1565b611540565b6040516104949190611e34565b60405180910390f35b600180546104aa90612360565b80601f01602080910402602001604051908101604052809291908181526020018280546104d690612360565b80156105235780601f106104f857610100808354040283529160200191610523565b820191906000526020600020905b81548152906001019060200180831161050657829003601f168201915b505050505081565b600081600660003373ffffffffffffffffffffffffffffffffffffffff1673ffffffffffffffffffffffffffffffffffffffff16815260200190815260200160002060008573ffffffffffffffffffffffffffffffffffffffff1673ffffffffffffffffffffffffffffffffffffffff168152602001908152602001600020819055508273ffffffffffffffffffffffffffffffffffffffff163373ffffffffffffffffffffffffffffffffffffffff167f8c5be1e5ebec7d5bd14f71427d1e84f3dd0314c0f7b2291e5b200ac8c7c3b9258460405161060b9190611e34565b60405180910390a36001905092915050565b606e60009054906101000a900473ffffffffffffffffffffffffffffffffffffffff1681565b60045481565b600080600660008673ffffffffffffffffffffffffffffffffffffffff1673ffffffffffffffffffffffffffffffffffffffff16815260200190815260200160002060003373ffffffffffffffffffffffffffffffffffffffff1673ffffffffffffffffffffffffffffffffffffffff1681526020019081526020016000205490507fffffffffffffffffffffffffffffffffffffffffffffffffffffffffffffffff811461077f5782816106fe91906123c0565b600660008773ffffffffffffffffffffffffffffffffffffffff1673ffffffffffffffffffffffffffffffffffffffff16815260200190815260200160002060003373ffffffffffffffffffffffffffffffffffffffff1673ffffffffffffffffffffffffffffffffffffffff168152602001908152602001600020819055505b82600560008773ffffffffffffffffffffffffffffffffffffffff1673ffffffffffffffffffffffffffffffffffffffff16815260200190815260200160002060008282546107ce91906123c0565b9250508190555082600560008673ffffffffffffffffffffffffffffffffffffffff1673ffffffffffffffffffffffffffffffffffffffff168152602001908152602001600020600082825401925050819055508373ffffffffffffffffffffffffffffffffffffffff168573ffffffffffffffffffffffffffffffffffffffff167fddf252ad1be2c89b69c2b068fc378daa952ba7f163c4a11628f55a4df523b3ef8560405161087f9190611e34565b60405180910390a360019150509392505050565b60008060019054906101000a900460ff161590508080156108c45750600160008054906101000a900460ff1660ff16105b806108f157506108d330611565565b1580156108f05750600160008054906101000a900460ff1660ff16145b5b610930576040517f08c379a000000000000000000000000000000000000000000000000000000000815260040161092790612466565b60405180910390fd5b60016000806101000a81548160ff021916908360ff160217905550801561096d576001600060016101000a81548160ff0219169083151502179055505b836001908161097c9190612632565b50826002908161098c9190612632565b5081600360006101000a81548160ff021916908360ff160217905550466007819055506109b7611588565b6008819055508015610a165760008060016101000a81548160ff0219169083151502179055507f7f26b83ff96e1f2b6a682f133852f6798a09c465da95921460cefb38474024986001604051610a0d919061273f565b60405180910390a15b50505050565b600360009054906101000a900460ff1681565b60006007544614610a4757610a42611588565b610a4b565b6008545b905090565b7f000000000000000000000000000000000000000000000000000000000000000073ffffffffffffffffffffffffffffffffffffffff163073ffffffffffffffffffffffffffffffffffffffff1603610ade576040517f08c379a0000000000000000000000000000000000000000000000000000000008152600401610ad5906127cc565b60405180910390fd5b7f000000000000000000000000000000000000000000000000000000000000000073ffffffffffffffffffffffffffffffffffffffff16610b1d611614565b73ffffffffffffffffffffffffffffffffffffffff1614610b73576040517f08c379a0000000000000000000000000000000000000000000000000000000008152600401610b6a9061285e565b60405180910390fd5b610b7c8161166b565b610bd581600067ffffffffffffffff811115610b9b57610b9a611eac565b5b6040519080825280601f01601f191660200182016040528015610bcd5781602001600182028036833780820191505090505b5060006116fe565b50565b606e60009054906101000a900473ffffffffffffffffffffffffffffffffffffffff1673ffffffffffffffffffffffffffffffffffffffff163373ffffffffffffffffffffffffffffffffffffffff1614610c68576040517f08c379a0000000000000000000000000000000000000000000000000000000008152600401610c5f906128ca565b60405180910390fd5b610c72828261186c565b5050565b7f000000000000000000000000000000000000000000000000000000000000000073ffffffffffffffffffffffffffffffffffffffff163073ffffffffffffffffffffffffffffffffffffffff1603610d04576040517f08c379a0000000000000000000000000000000000000000000000000000000008152600401610cfb906127cc565b60405180910390fd5b7f000000000000000000000000000000000000000000000000000000000000000073ffffffffffffffffffffffffffffffffffffffff16610d43611614565b73ffffffffffffffffffffffffffffffffffffffff1614610d99576040517f08c379a0000000000000000000000000000000000000000000000000000000008152600401610d909061285e565b60405180910390fd5b610da28261166b565b610dae828260016116fe565b5050565b60007f000000000000000000000000000000000000000000000000000000000000000073ffffffffffffffffffffffffffffffffffffffff163073ffffffffffffffffffffffffffffffffffffffff1614610e42576040517f08c379a0000000000000000000000000000000000000000000000000000000008152600401610e399061295c565b60405180910390fd5b7f360894a13ba1a3210667c828492db98dca3e2076cc3735a920a3ca505d382bbc60001b905090565b60056020528060005260406000206000915090505481565b60096020528060005260406000206000915090505481565b60028054610ea890612360565b80601f0160208091040260200160405190810160405280929190818152602001828054610ed490612360565b8015610f215780601f10610ef657610100808354040283529160200191610f21565b820191906000526020600020905b815481529060010190602001808311610f0457829003601f168201915b505050505081565b600081600560003373ffffffffffffffffffffffffffffffffffffffff1673ffffffffffffffffffffffffffffffffffffffff1681526020019081526020016000206000828254610f7a91906123c0565b9250508190555081600560008573ffffffffffffffffffffffffffffffffffffffff1673ffffffffffffffffffffffffffffffffffffffff168152602001908152602001600020600082825401925050819055508273ffffffffffffffffffffffffffffffffffffffff163373ffffffffffffffffffffffffffffffffffffffff167fddf252ad1be2c89b69c2b068fc378daa952ba7f163c4a11628f55a4df523b3ef8460405161102b9190611e34565b60405180910390a36001905092915050565b60008060019054906101000a900460ff1615905080801561106e5750600160008054906101000a900460ff1660ff16105b8061109b575061107d30611565565b15801561109a5750600160008054906101000a900460ff1660ff16145b5b6110da576040517f08c379a00000000000000000000000000000000000000000000000000000000081526004016110d190612466565b60405180910390fd5b60016000806101000a81548160ff021916908360ff1602179055508015611117576001600060016101000a81548160ff0219169083151502179055505b61118d6040518060400160405280600981526020017f58534420746f6b656e00000000000000000000000000000000000000000000008152506040518060400160405280600381526020017f58534400000000000000000000000000000000000000000000000000000000008152506012610893565b61119561193c565b81606e60006101000a81548173ffffffffffffffffffffffffffffffffffffffff021916908373ffffffffffffffffffffffffffffffffffffffff1602179055506111ea3369152d02c7e14af680000061186c565b80156112435760008060016101000a81548160ff0219169083151502179055507f7f26b83ff96e1f2b6a682f133852f6798a09c465da95921460cefb3847402498600160405161123a919061273f565b60405180910390a15b5050565b4284101561128a576040517f08c379a0000000000000000000000000000000000000000000000000000000008152600401611281906129c8565b60405180910390fd5b60006001611296610a2f565b7f6e71edae12b1b97f4d1f60370fef10105fa2faae0126114a169c64845d6126c98a8a8a600960008f73ffffffffffffffffffffffffffffffffffffffff1673ffffffffffffffffffffffffffffffffffffffff1681526020019081526020016000206000815480929190600101919050558b60405160200161131e969594939291906129e8565b60405160208183030381529060405280519060200120604051602001611345929190612ac1565b604051602081830303815290604052805190602001208585856040516000815260200160405260405161137b9493929190612af8565b6020604051602081039080840390855afa15801561139d573d6000803e3d6000fd5b505050602060405103519050600073ffffffffffffffffffffffffffffffffffffffff168173ffffffffffffffffffffffffffffffffffffffff161415801561141157508773ffffffffffffffffffffffffffffffffffffffff168173ffffffffffffffffffffffffffffffffffffffff16145b611450576040517f08c379a000000000000000000000000000000000000000000000000000000000815260040161144790612b89565b60405180910390fd5b85600660008373ffffffffffffffffffffffffffffffffffffffff1673ffffffffffffffffffffffffffffffffffffffff16815260200190815260200160002060008973ffffffffffffffffffffffffffffffffffffffff1673ffffffffffffffffffffffffffffffffffffffff16815260200190815260200160002081905550508573ffffffffffffffffffffffffffffffffffffffff168773ffffffffffffffffffffffffffffffffffffffff167f8c5be1e5ebec7d5bd14f71427d1e84f3dd0314c0f7b2291e5b200ac8c7c3b9258760405161152f9190611e34565b60405180910390a350505050505050565b6006602052816000526040600020602052806000526040600020600091509150505481565b6000808273ffffffffffffffffffffffffffffffffffffffff163b119050919050565b60007f8b73c3c69bb8fe3d512ecc4cf759cc79239f7b179b0ffacaa9a75d522b39400f60016040516115ba9190612c4c565b60405180910390207fc89efdaa54c0f20c7adf612882df0950f5a951637e0307cdcb4c672f298b8bc646306040516020016115f9959493929190612c63565b60405160208183030381529060405280519060200120905090565b60006116427f360894a13ba1a3210667c828492db98dca3e2076cc3735a920a3ca505d382bbc60001b61198d565b60000160009054906101000a900473ffffffffffffffffffffffffffffffffffffffff16905090565b606e60009054906101000a900473ffffffffffffffffffffffffffffffffffffffff1673ffffffffffffffffffffffffffffffffffffffff163373ffffffffffffffffffffffffffffffffffffffff16146116fb576040517f08c379a00000000000000000000000000000000000000000000000000000000081526004016116f2906128ca565b60405180910390fd5b50565b61172a7f4910fdfa16fed3260ed0e7147f7cc6da11a60208b5b9406d12a635614ffd914360001b611997565b60000160009054906101000a900460ff161561174e57611749836119a1565b611867565b8273ffffffffffffffffffffffffffffffffffffffff166352d1902d6040518163ffffffff1660e01b8152600401602060405180830381865afa9250505080156117b657506040513d601f19601f820116820180604052508101906117b39190612ccb565b60015b6117f5576040517f08c379a00000000000000000000000000000000000000000000000000000000081526004016117ec90612d6a565b60405180910390fd5b7f360894a13ba1a3210667c828492db98dca3e2076cc3735a920a3ca505d382bbc60001b811461185a576040517f08c379a000000000000000000000000000000000000000000000000000000000815260040161185190612dfc565b60405180910390fd5b50611866838383611a5a565b5b505050565b806004600082825461187e9190612e1c565b9250508190555080600560008473ffffffffffffffffffffffffffffffffffffffff1673ffffffffffffffffffffffffffffffffffffffff168152602001908152602001600020600082825401925050819055508173ffffffffffffffffffffffffffffffffffffffff16600073ffffffffffffffffffffffffffffffffffffffff167fddf252ad1be2c89b69c2b068fc378daa952ba7f163c4a11628f55a4df523b3ef836040516119309190611e34565b60405180910390a35050565b600060019054906101000a900460ff1661198b576040517f08c379a000000000000000000000000000000000000000000000000000000000815260040161198290612ec2565b60405180910390fd5b565b6000819050919050565b6000819050919050565b6119aa81611565565b6119e9576040517f08c379a00000000000000000000000000000000000000000000000000000000081526004016119e090612f54565b60405180910390fd5b80611a167f360894a13ba1a3210667c828492db98dca3e2076cc3735a920a3ca505d382bbc60001b61198d565b60000160006101000a81548173ffffffffffffffffffffffffffffffffffffffff021916908373ffffffffffffffffffffffffffffffffffffffff16021790555050565b611a6383611a86565b600082511180611a705750805b15611a8157611a7f8383611ad5565b505b505050565b611a8f816119a1565b8073ffffffffffffffffffffffffffffffffffffffff167fbc7cd75a20ee27fd9adebab32041f755214dbc6bffa90cc0225b39da2e5c2d3b60405160405180910390a250565b6060611ae083611565565b611b1f576040517f08c379a0000000000000000000000000000000000000000000000000000000008152600401611b1690612fe6565b60405180910390fd5b6000808473ffffffffffffffffffffffffffffffffffffffff1684604051611b479190613042565b600060405180830381855af49150503d8060008114611b82576040519150601f19603f3d011682016040523d82523d6000602084013e611b87565b606091505b5091509150611baf828260405180606001604052806027815260200161305a60279139611bb9565b9250505092915050565b60608315611bc957829050611bd4565b611bd38383611bdb565b5b9392505050565b600082511115611bee5781518083602001fd5b806040517f08c379a0000000000000000000000000000000000000000000000000000000008152600401611c229190611cbb565b60405180910390fd5b600081519050919050565b600082825260208201905092915050565b60005b83811015611c65578082015181840152602081019050611c4a565b60008484015250505050565b6000601f19601f8301169050919050565b6000611c8d82611c2b565b611c978185611c36565b9350611ca7818560208601611c47565b611cb081611c71565b840191505092915050565b60006020820190508181036000830152611cd58184611c82565b905092915050565b6000604051905090565b600080fd5b600080fd5b600073ffffffffffffffffffffffffffffffffffffffff82169050919050565b6000611d1c82611cf1565b9050919050565b611d2c81611d11565b8114611d3757600080fd5b50565b600081359050611d4981611d23565b92915050565b6000819050919050565b611d6281611d4f565b8114611d6d57600080fd5b50565b600081359050611d7f81611d59565b92915050565b60008060408385031215611d9c57611d9b611ce7565b5b6000611daa85828601611d3a565b9250506020611dbb85828601611d70565b9150509250929050565b60008115159050919050565b611dda81611dc5565b82525050565b6000602082019050611df56000830184611dd1565b92915050565b611e0481611d11565b82525050565b6000602082019050611e1f6000830184611dfb565b92915050565b611e2e81611d4f565b82525050565b6000602082019050611e496000830184611e25565b92915050565b600080600060608486031215611e6857611e67611ce7565b5b6000611e7686828701611d3a565b9350506020611e8786828701611d3a565b9250506040611e9886828701611d70565b9150509250925092565b600080fd5b600080fd5b7f4e487b7100000000000000000000000000000000000000000000000000000000600052604160045260246000fd5b611ee482611c71565b810181811067ffffffffffffffff82111715611f0357611f02611eac565b5b80604052505050565b6000611f16611cdd565b9050611f228282611edb565b919050565b600067ffffffffffffffff821115611f4257611f41611eac565b5b611f4b82611c71565b9050602081019050919050565b82818337600083830152505050565b6000611f7a611f7584611f27565b611f0c565b905082815260208101848484011115611f9657611f95611ea7565b5b611fa1848285611f58565b509392505050565b600082601f830112611fbe57611fbd611ea2565b5b8135611fce848260208601611f67565b91505092915050565b600060ff82169050919050565b611fed81611fd7565b8114611ff857600080fd5b50565b60008135905061200a81611fe4565b92915050565b60008060006060848603121561202957612028611ce7565b5b600084013567ffffffffffffffff81111561204757612046611cec565b5b61205386828701611fa9565b935050602084013567ffffffffffffffff81111561207457612073611cec565b5b61208086828701611fa9565b925050604061209186828701611ffb565b9150509250925092565b6120a481611fd7565b82525050565b60006020820190506120bf600083018461209b565b92915050565b6000819050919050565b6120d8816120c5565b82525050565b60006020820190506120f360008301846120cf565b92915050565b60006020828403121561210f5761210e611ce7565b5b600061211d84828501611d3a565b91505092915050565b600067ffffffffffffffff82111561214157612140611eac565b5b61214a82611c71565b9050602081019050919050565b600061216a61216584612126565b611f0c565b90508281526020810184848401111561218657612185611ea7565b5b612191848285611f58565b509392505050565b600082601f8301126121ae576121ad611ea2565b5b81356121be848260208601612157565b91505092915050565b600080604083850312156121de576121dd611ce7565b5b60006121ec85828601611d3a565b925050602083013567ffffffffffffffff81111561220d5761220c611cec565b5b61221985828601612199565b9150509250929050565b61222c816120c5565b811461223757600080fd5b50565b60008135905061224981612223565b92915050565b600080600080600080600060e0888a03121561226e5761226d611ce7565b5b600061227c8a828b01611d3a565b975050602061228d8a828b01611d3a565b965050604061229e8a828b01611d70565b95505060606122af8a828b01611d70565b94505060806122c08a828b01611ffb565b93505060a06122d18a828b0161223a565b92505060c06122e28a828b0161223a565b91505092959891949750929550565b6000806040838503121561230857612307611ce7565b5b600061231685828601611d3a565b925050602061232785828601611d3a565b9150509250929050565b7f4e487b7100000000000000000000000000000000000000000000000000000000600052602260045260246000fd5b6000600282049050600182168061237857607f821691505b60208210810361238b5761238a612331565b5b50919050565b7f4e487b7100000000000000000000000000000000000000000000000000000000600052601160045260246000fd5b60006123cb82611d4f565b91506123d683611d4f565b92508282039050818111156123ee576123ed612391565b5b92915050565b7f496e697469616c697a61626c653a20636f6e747261637420697320616c72656160008201527f647920696e697469616c697a6564000000000000000000000000000000000000602082015250565b6000612450602e83611c36565b915061245b826123f4565b604082019050919050565b6000602082019050818103600083015261247f81612443565b9050919050565b60008190508160005260206000209050919050565b60006020601f8301049050919050565b600082821b905092915050565b6000600883026124e87fffffffffffffffffffffffffffffffffffffffffffffffffffffffffffffffff826124ab565b6124f286836124ab565b95508019841693508086168417925050509392505050565b6000819050919050565b600061252f61252a61252584611d4f565b61250a565b611d4f565b9050919050565b6000819050919050565b61254983612514565b61255d61255582612536565b8484546124b8565b825550505050565b600090565b612572612565565b61257d818484612540565b505050565b5b818110156125a15761259660008261256a565b600181019050612583565b5050565b601f8211156125e6576125b781612486565b6125c08461249b565b810160208510156125cf578190505b6125e36125db8561249b565b830182612582565b50505b505050565b600082821c905092915050565b6000612609600019846008026125eb565b1980831691505092915050565b600061262283836125f8565b9150826002028217905092915050565b61263b82611c2b565b67ffffffffffffffff81111561265457612653611eac565b5b61265e8254612360565b6126698282856125a5565b600060209050601f83116001811461269c576000841561268a578287015190505b6126948582612616565b8655506126fc565b601f1984166126aa86612486565b60005b828110156126d2578489015182556001820191506020850194506020810190506126ad565b868310156126ef57848901516126eb601f8916826125f8565b8355505b6001600288020188555050505b505050505050565b6000819050919050565b600061272961272461271f84612704565b61250a565b611fd7565b9050919050565b6127398161270e565b82525050565b60006020820190506127546000830184612730565b92915050565b7f46756e6374696f6e206d7573742062652063616c6c6564207468726f7567682060008201527f64656c656761746563616c6c0000000000000000000000000000000000000000602082015250565b60006127b6602c83611c36565b91506127c18261275a565b604082019050919050565b600060208201905081810360008301526127e5816127a9565b9050919050565b7f46756e6374696f6e206d7573742062652063616c6c6564207468726f7567682060008201527f6163746976652070726f78790000000000000000000000000000000000000000602082015250565b6000612848602c83611c36565b9150612853826127ec565b604082019050919050565b600060208201905081810360008301526128778161283b565b9050919050565b7f4f776e61626c653a2063616c6c6572206973206e6f7420746865206f776e6572600082015250565b60006128b4602083611c36565b91506128bf8261287e565b602082019050919050565b600060208201905081810360008301526128e3816128a7565b9050919050565b7f555550535570677261646561626c653a206d757374206e6f742062652063616c60008201527f6c6564207468726f7567682064656c656761746563616c6c0000000000000000602082015250565b6000612946603883611c36565b9150612951826128ea565b604082019050919050565b6000602082019050818103600083015261297581612939565b9050919050565b7f5045524d49545f444541444c494e455f45585049524544000000000000000000600082015250565b60006129b2601783611c36565b91506129bd8261297c565b602082019050919050565b600060208201905081810360008301526129e1816129a5565b9050919050565b600060c0820190506129fd60008301896120cf565b612a0a6020830188611dfb565b612a176040830187611dfb565b612a246060830186611e25565b612a316080830185611e25565b612a3e60a0830184611e25565b979650505050505050565b600081905092915050565b7f1901000000000000000000000000000000000000000000000000000000000000600082015250565b6000612a8a600283612a49565b9150612a9582612a54565b600282019050919050565b6000819050919050565b612abb612ab6826120c5565b612aa0565b82525050565b6000612acc82612a7d565b9150612ad88285612aaa565b602082019150612ae88284612aaa565b6020820191508190509392505050565b6000608082019050612b0d60008301876120cf565b612b1a602083018661209b565b612b2760408301856120cf565b612b3460608301846120cf565b95945050505050565b7f494e56414c49445f5349474e4552000000000000000000000000000000000000600082015250565b6000612b73600e83611c36565b9150612b7e82612b3d565b602082019050919050565b60006020820190508181036000830152612ba281612b66565b9050919050565b600081905092915050565b60008190508160005260206000209050919050565b60008154612bd681612360565b612be08186612ba9565b94506001821660008114612bfb5760018114612c1057612c43565b60ff1983168652811515820286019350612c43565b612c1985612bb4565b60005b83811015612c3b57815481890152600182019150602081019050612c1c565b838801955050505b50505092915050565b6000612c588284612bc9565b915081905092915050565b600060a082019050612c7860008301886120cf565b612c8560208301876120cf565b612c9260408301866120cf565b612c9f6060830185611e25565b612cac6080830184611dfb565b9695505050505050565b600081519050612cc581612223565b92915050565b600060208284031215612ce157612ce0611ce7565b5b6000612cef84828501612cb6565b91505092915050565b7f45524331393637557067726164653a206e657720696d706c656d656e7461746960008201527f6f6e206973206e6f742055555053000000000000000000000000000000000000602082015250565b6000612d54602e83611c36565b9150612d5f82612cf8565b604082019050919050565b60006020820190508181036000830152612d8381612d47565b9050919050565b7f45524331393637557067726164653a20756e737570706f727465642070726f7860008201527f6961626c65555549440000000000000000000000000000000000000000000000602082015250565b6000612de6602983611c36565b9150612df182612d8a565b604082019050919050565b60006020820190508181036000830152612e1581612dd9565b9050919050565b6000612e2782611d4f565b9150612e3283611d4f565b9250828201905080821115612e4a57612e49612391565b5b92915050565b7f496e697469616c697a61626c653a20636f6e7472616374206973206e6f74206960008201527f6e697469616c697a696e67000000000000000000000000000000000000000000602082015250565b6000612eac602b83611c36565b9150612eb782612e50565b604082019050919050565b60006020820190508181036000830152612edb81612e9f565b9050919050565b7f455243313936373a206e657720696d706c656d656e746174696f6e206973206e60008201527f6f74206120636f6e747261637400000000000000000000000000000000000000602082015250565b6000612f3e602d83611c36565b9150612f4982612ee2565b604082019050919050565b60006020820190508181036000830152612f6d81612f31565b9050919050565b7f416464726573733a2064656c65676174652063616c6c20746f206e6f6e2d636f60008201527f6e74726163740000000000000000000000000000000000000000000000000000602082015250565b6000612fd0602683611c36565b9150612fdb82612f74565b604082019050919050565b60006020820190508181036000830152612fff81612fc3565b9050919050565b600081519050919050565b600061301c82613006565b6130268185612ba9565b9350613036818560208601611c47565b80840191505092915050565b600061304e8284613011565b91508190509291505056fe416464726573733a206c6f772d6c6576656c2064656c65676174652063616c6c206661696c6564a264697066735822122093605a994fbd4245bca270983ca552da0d1fefc6ebe89e2456bf2a70c642252364736f6c63430008120033",
  "devdoc": {
    "events": {
      "AdminChanged(address,address)": {
        "details": "Emitted when the admin account has changed."
      },
      "BeaconUpgraded(address)": {
        "details": "Emitted when the beacon is changed."
      },
      "Initialized(uint8)": {
        "details": "Triggered when the contract has been initialized or reinitialized."
      },
      "Upgraded(address)": {
        "details": "Emitted when the implementation is upgraded."
      }
    },
    "kind": "dev",
    "methods": {
      "constructor": {
        "custom:oz-upgrades-unsafe-allow": "constructor"
      },
      "proxiableUUID()": {
        "details": "Implementation of the ERC1822 {proxiableUUID} function. This returns the storage slot used by the implementation. It is used to validate the implementation's compatibility when performing an upgrade. IMPORTANT: A proxy pointing at a proxiable contract should not be considered proxiable itself, because this risks bricking a proxy that upgrades to it, by delegating to itself until out of gas. Thus it is critical that this function revert if invoked through a proxy. This is guaranteed by the `notDelegated` modifier."
      },
      "upgradeTo(address)": {
        "details": "Upgrade the implementation of the proxy to `newImplementation`. Calls {_authorizeUpgrade}. Emits an {Upgraded} event."
      },
      "upgradeToAndCall(address,bytes)": {
        "details": "Upgrade the implementation of the proxy to `newImplementation`, and subsequently execute the function call encoded in `data`. Calls {_authorizeUpgrade}. Emits an {Upgraded} event."
      }
    },
    "version": 1
  },
  "userdoc": {
    "kind": "user",
    "methods": {},
    "version": 1
  },
  "storageLayout": {
    "storage": [
      {
        "astId": 402,
        "contract": "contracts/XSD/XSDToken.sol:XSDToken",
        "label": "_initialized",
        "offset": 0,
        "slot": "0",
        "type": "t_uint8"
      },
      {
        "astId": 405,
        "contract": "contracts/XSD/XSDToken.sol:XSDToken",
        "label": "_initializing",
        "offset": 1,
        "slot": "0",
        "type": "t_bool"
      },
      {
        "astId": 1885,
        "contract": "contracts/XSD/XSDToken.sol:XSDToken",
        "label": "name",
        "offset": 0,
        "slot": "1",
        "type": "t_string_storage"
      },
      {
        "astId": 1887,
        "contract": "contracts/XSD/XSDToken.sol:XSDToken",
        "label": "symbol",
        "offset": 0,
        "slot": "2",
        "type": "t_string_storage"
      },
      {
        "astId": 1889,
        "contract": "contracts/XSD/XSDToken.sol:XSDToken",
        "label": "decimals",
        "offset": 0,
        "slot": "3",
        "type": "t_uint8"
      },
      {
        "astId": 1891,
        "contract": "contracts/XSD/XSDToken.sol:XSDToken",
        "label": "totalSupply",
        "offset": 0,
        "slot": "4",
        "type": "t_uint256"
      },
      {
        "astId": 1895,
        "contract": "contracts/XSD/XSDToken.sol:XSDToken",
        "label": "balanceOf",
        "offset": 0,
        "slot": "5",
        "type": "t_mapping(t_address,t_uint256)"
      },
      {
        "astId": 1901,
        "contract": "contracts/XSD/XSDToken.sol:XSDToken",
        "label": "allowance",
        "offset": 0,
        "slot": "6",
        "type": "t_mapping(t_address,t_mapping(t_address,t_uint256))"
      },
      {
        "astId": 1903,
        "contract": "contracts/XSD/XSDToken.sol:XSDToken",
        "label": "INITIAL_CHAIN_ID",
        "offset": 0,
        "slot": "7",
        "type": "t_uint256"
      },
      {
        "astId": 1905,
        "contract": "contracts/XSD/XSDToken.sol:XSDToken",
        "label": "INITIAL_DOMAIN_SEPARATOR",
        "offset": 0,
        "slot": "8",
        "type": "t_bytes32"
      },
      {
        "astId": 1909,
        "contract": "contracts/XSD/XSDToken.sol:XSDToken",
        "label": "nonces",
        "offset": 0,
        "slot": "9",
        "type": "t_mapping(t_address,t_uint256)"
      },
      {
        "astId": 384,
        "contract": "contracts/XSD/XSDToken.sol:XSDToken",
        "label": "__gap",
        "offset": 0,
        "slot": "10",
        "type": "t_array(t_uint256)50_storage"
      },
      {
        "astId": 699,
        "contract": "contracts/XSD/XSDToken.sol:XSDToken",
        "label": "__gap",
        "offset": 0,
        "slot": "60",
        "type": "t_array(t_uint256)50_storage"
      },
      {
        "astId": 2267,
        "contract": "contracts/XSD/XSDToken.sol:XSDToken",
        "label": "s_admin",
        "offset": 0,
        "slot": "110",
        "type": "t_address"
      }
    ],
    "types": {
      "t_address": {
        "encoding": "inplace",
        "label": "address",
        "numberOfBytes": "20"
      },
      "t_array(t_uint256)50_storage": {
        "base": "t_uint256",
        "encoding": "inplace",
        "label": "uint256[50]",
        "numberOfBytes": "1600"
      },
      "t_bool": {
        "encoding": "inplace",
        "label": "bool",
        "numberOfBytes": "1"
      },
      "t_bytes32": {
        "encoding": "inplace",
        "label": "bytes32",
        "numberOfBytes": "32"
      },
      "t_mapping(t_address,t_mapping(t_address,t_uint256))": {
        "encoding": "mapping",
        "key": "t_address",
        "label": "mapping(address => mapping(address => uint256))",
        "numberOfBytes": "32",
        "value": "t_mapping(t_address,t_uint256)"
      },
      "t_mapping(t_address,t_uint256)": {
        "encoding": "mapping",
        "key": "t_address",
        "label": "mapping(address => uint256)",
        "numberOfBytes": "32",
        "value": "t_uint256"
      },
      "t_string_storage": {
        "encoding": "bytes",
        "label": "string",
        "numberOfBytes": "32"
      },
      "t_uint256": {
        "encoding": "inplace",
        "label": "uint256",
        "numberOfBytes": "32"
      },
      "t_uint8": {
        "encoding": "inplace",
        "label": "uint8",
        "numberOfBytes": "1"
      }
    }
  }
}