{
  "_format": "hh-sol-artifact-1",
  "contractName": "MXCToken",
  "sourceName": "contracts/L1/MXCToken.sol",
  "abi": [
    {
      "inputs": [],
      "name": "HasMinted",
      "type": "error"
    },
    {
      "inputs": [],
      "name": "RESOLVER_DENIED",
      "type": "error"
    },
    {
      "inputs": [],
      "name": "RESOLVER_INVALID_ADDR",
      "type": "error"
    },
    {
      "inputs": [],
      "name": "TKO_INVALID_ADDR",
      "type": "error"
    },
    {
      "anonymous": false,
      "inputs": [
        {
          "indexed": true,
          "internalType": "address",
          "name": "owner",
          "type": "address"
        },
        {
          "indexed": true,
          "internalType": "address",
          "name": "spender",
          "type": "address"
        },
        {
          "indexed": false,
          "internalType": "uint256",
          "name": "value",
          "type": "uint256"
        }
      ],
      "name": "Approval",
      "type": "event"
    },
    {
      "anonymous": false,
      "inputs": [
        {
          "indexed": false,
          "internalType": "address",
          "name": "account",
          "type": "address"
        },
        {
          "indexed": false,
          "internalType": "uint256",
          "name": "amount",
          "type": "uint256"
        }
      ],
      "name": "Burn",
      "type": "event"
    },
    {
      "anonymous": false,
      "inputs": [
        {
          "indexed": false,
          "internalType": "uint8",
          "name": "version",
          "type": "uint8"
        }
      ],
      "name": "Initialized",
      "type": "event"
    },
    {
      "anonymous": false,
      "inputs": [
        {
          "indexed": false,
          "internalType": "address",
          "name": "account",
          "type": "address"
        },
        {
          "indexed": false,
          "internalType": "uint256",
          "name": "amount",
          "type": "uint256"
        }
      ],
      "name": "Mint",
      "type": "event"
    },
    {
      "anonymous": false,
      "inputs": [
        {
          "indexed": true,
          "internalType": "address",
          "name": "previousOwner",
          "type": "address"
        },
        {
          "indexed": true,
          "internalType": "address",
          "name": "newOwner",
          "type": "address"
        }
      ],
      "name": "OwnershipTransferred",
      "type": "event"
    },
    {
      "anonymous": false,
      "inputs": [
        {
          "indexed": true,
          "internalType": "address",
          "name": "from",
          "type": "address"
        },
        {
          "indexed": true,
          "internalType": "address",
          "name": "to",
          "type": "address"
        },
        {
          "indexed": false,
          "internalType": "uint256",
          "name": "value",
          "type": "uint256"
        }
      ],
      "name": "Transfer",
      "type": "event"
    },
    {
      "inputs": [],
      "name": "addressManager",
      "outputs": [
        {
          "internalType": "address",
          "name": "",
          "type": "address"
        }
      ],
      "stateMutability": "view",
      "type": "function"
    },
    {
      "inputs": [
        {
          "internalType": "address",
          "name": "owner",
          "type": "address"
        },
        {
          "internalType": "address",
          "name": "spender",
          "type": "address"
        }
      ],
      "name": "allowance",
      "outputs": [
        {
          "internalType": "uint256",
          "name": "",
          "type": "uint256"
        }
      ],
      "stateMutability": "view",
      "type": "function"
    },
    {
      "inputs": [
        {
          "internalType": "address",
          "name": "spender",
          "type": "address"
        },
        {
          "internalType": "uint256",
          "name": "amount",
          "type": "uint256"
        }
      ],
      "name": "approve",
      "outputs": [
        {
          "internalType": "bool",
          "name": "",
          "type": "bool"
        }
      ],
      "stateMutability": "nonpayable",
      "type": "function"
    },
    {
      "inputs": [
        {
          "internalType": "address",
          "name": "account",
          "type": "address"
        }
      ],
      "name": "balanceOf",
      "outputs": [
        {
          "internalType": "uint256",
          "name": "",
          "type": "uint256"
        }
      ],
      "stateMutability": "view",
      "type": "function"
    },
    {
      "inputs": [
        {
          "internalType": "address",
          "name": "account",
          "type": "address"
        },
        {
          "internalType": "uint256",
          "name": "amount",
          "type": "uint256"
        }
      ],
      "name": "burn",
      "outputs": [],
      "stateMutability": "nonpayable",
      "type": "function"
    },
    {
      "inputs": [],
      "name": "decimals",
      "outputs": [
        {
          "internalType": "uint8",
          "name": "",
          "type": "uint8"
        }
      ],
      "stateMutability": "view",
      "type": "function"
    },
    {
      "inputs": [
        {
          "internalType": "address",
          "name": "spender",
          "type": "address"
        },
        {
          "internalType": "uint256",
          "name": "subtractedValue",
          "type": "uint256"
        }
      ],
      "name": "decreaseAllowance",
      "outputs": [
        {
          "internalType": "bool",
          "name": "",
          "type": "bool"
        }
      ],
      "stateMutability": "nonpayable",
      "type": "function"
    },
    {
      "inputs": [
        {
          "internalType": "address",
          "name": "spender",
          "type": "address"
        },
        {
          "internalType": "uint256",
          "name": "addedValue",
          "type": "uint256"
        }
      ],
      "name": "increaseAllowance",
      "outputs": [
        {
          "internalType": "bool",
          "name": "",
          "type": "bool"
        }
      ],
      "stateMutability": "nonpayable",
      "type": "function"
    },
    {
      "inputs": [
        {
          "internalType": "string",
          "name": "_name",
          "type": "string"
        },
        {
          "internalType": "string",
          "name": "_symbol",
          "type": "string"
        },
        {
          "internalType": "address",
          "name": "_addressManager",
          "type": "address"
        }
      ],
      "name": "init",
      "outputs": [],
      "stateMutability": "nonpayable",
      "type": "function"
    },
    {
      "inputs": [
        {
          "internalType": "address",
          "name": "account",
          "type": "address"
        },
        {
          "internalType": "uint256",
          "name": "amount",
          "type": "uint256"
        }
      ],
      "name": "mint",
      "outputs": [],
      "stateMutability": "nonpayable",
      "type": "function"
    },
    {
      "inputs": [
        {
          "internalType": "address",
          "name": "to",
          "type": "address"
        }
      ],
      "name": "mint",
      "outputs": [],
      "stateMutability": "nonpayable",
      "type": "function"
    },
    {
      "inputs": [
        {
          "internalType": "address",
          "name": "minter",
          "type": "address"
        }
      ],
      "name": "minters",
      "outputs": [
        {
          "internalType": "bool",
          "name": "hasMinted",
          "type": "bool"
        }
      ],
      "stateMutability": "view",
      "type": "function"
    },
    {
      "inputs": [],
      "name": "name",
      "outputs": [
        {
          "internalType": "string",
          "name": "",
          "type": "string"
        }
      ],
      "stateMutability": "view",
      "type": "function"
    },
    {
      "inputs": [],
      "name": "owner",
      "outputs": [
        {
          "internalType": "address",
          "name": "",
          "type": "address"
        }
      ],
      "stateMutability": "view",
      "type": "function"
    },
    {
      "inputs": [],
      "name": "renounceOwnership",
      "outputs": [],
      "stateMutability": "nonpayable",
      "type": "function"
    },
    {
      "inputs": [
        {
          "internalType": "string",
          "name": "name",
          "type": "string"
        },
        {
          "internalType": "bool",
          "name": "allowZeroAddress",
          "type": "bool"
        }
      ],
      "name": "resolve",
      "outputs": [
        {
          "internalType": "address payable",
          "name": "",
          "type": "address"
        }
      ],
      "stateMutability": "view",
      "type": "function"
    },
    {
      "inputs": [
        {
          "internalType": "uint256",
          "name": "chainId",
          "type": "uint256"
        },
        {
          "internalType": "string",
          "name": "name",
          "type": "string"
        },
        {
          "internalType": "bool",
          "name": "allowZeroAddress",
          "type": "bool"
        }
      ],
      "name": "resolve",
      "outputs": [
        {
          "internalType": "address payable",
          "name": "",
          "type": "address"
        }
      ],
      "stateMutability": "view",
      "type": "function"
    },
    {
      "inputs": [],
      "name": "symbol",
      "outputs": [
        {
          "internalType": "string",
          "name": "",
          "type": "string"
        }
      ],
      "stateMutability": "view",
      "type": "function"
    },
    {
      "inputs": [],
      "name": "totalSupply",
      "outputs": [
        {
          "internalType": "uint256",
          "name": "",
          "type": "uint256"
        }
      ],
      "stateMutability": "view",
      "type": "function"
    },
    {
      "inputs": [
        {
          "internalType": "address",
          "name": "to",
          "type": "address"
        },
        {
          "internalType": "uint256",
          "name": "amount",
          "type": "uint256"
        }
      ],
      "name": "transfer",
      "outputs": [
        {
          "internalType": "bool",
          "name": "",
          "type": "bool"
        }
      ],
      "stateMutability": "nonpayable",
      "type": "function"
    },
    {
      "inputs": [
        {
          "internalType": "address",
          "name": "from",
          "type": "address"
        },
        {
          "internalType": "address",
          "name": "to",
          "type": "address"
        },
        {
          "internalType": "uint256",
          "name": "amount",
          "type": "uint256"
        }
      ],
      "name": "transferFrom",
      "outputs": [
        {
          "internalType": "bool",
          "name": "",
          "type": "bool"
        }
      ],
      "stateMutability": "nonpayable",
      "type": "function"
    },
    {
      "inputs": [
        {
          "internalType": "address",
          "name": "newOwner",
          "type": "address"
        }
      ],
      "name": "transferOwnership",
      "outputs": [],
      "stateMutability": "nonpayable",
      "type": "function"
    }
  ],
  "bytecode": "0x608060405234801561001057600080fd5b506121cf806100206000396000f3fe608060405234801561001057600080fd5b50600436106101825760003560e01c80636ee5741a116100d85780639dc29fac1161008c578063dd62ed3e11610066578063dd62ed3e14610356578063f2fde38b1461039c578063f46eccc4146103af57600080fd5b80639dc29fac1461031d578063a457c2d714610330578063a9059cbb1461034357600080fd5b8063715018a6116100bd578063715018a6146102ef5780638da5cb5b146102f757806395d89b411461031557600080fd5b80636ee5741a146102a657806370a08231146102b957600080fd5b806323b872dd1161013a5780633ab76e9f116101145780633ab76e9f1461026057806340c10f191461027e5780636a6278421461029357600080fd5b806323b872dd14610225578063313ce56714610238578063395093511461024d57600080fd5b80630ca4dffd1161016b5780630ca4dffd146101c857806318160ddd146102005780631be2bfa71461021257600080fd5b806306fdde0314610187578063095ea7b3146101a5575b600080fd5b61018f6103d3565b60405161019c9190611abf565b60405180910390f35b6101b86101b3366004611b32565b610465565b604051901515815260200161019c565b6101db6101d6366004611c4d565b61047f565b60405173ffffffffffffffffffffffffffffffffffffffff909116815260200161019c565b60cb545b60405190815260200161019c565b6101db610220366004611c9b565b610493565b6101b8610233366004611cf2565b6104a8565b60ce5460405160ff909116815260200161019c565b6101b861025b366004611b32565b610504565b60975473ffffffffffffffffffffffffffffffffffffffff166101db565b61029161028c366004611b32565b610550565b005b6102916102a1366004611d33565b6106a1565b6102916102b4366004611d50565b610754565b6102046102c7366004611d33565b73ffffffffffffffffffffffffffffffffffffffff16600090815260c9602052604090205490565b6102916108e1565b60655473ffffffffffffffffffffffffffffffffffffffff166101db565b61018f6108f5565b61029161032b366004611b32565b610904565b6101b861033e366004611b32565b610a4c565b6101b8610351366004611b32565b610b0e565b610204610364366004611dc8565b73ffffffffffffffffffffffffffffffffffffffff918216600090815260ca6020908152604080832093909416825291909152205490565b6102916103aa366004611d33565b610b69565b6101b86103bd366004611d33565b61012d6020526000908152604090205460ff1681565b606060cc80546103e290611e01565b80601f016020809104026020016040519081016040528092919081815260200182805461040e90611e01565b801561045b5780601f106104305761010080835404028352916020019161045b565b820191906000526020600020905b81548152906001019060200180831161043e57829003601f168201915b5050505050905090565b600033610473818585610c03565b60019150505b92915050565b600061048c468484610d82565b9392505050565b60006104a0848484610d82565b949350505050565b60003073ffffffffffffffffffffffffffffffffffffffff8416036104f9576040517f87c1a45700000000000000000000000000000000000000000000000000000000815260040160405180910390fd5b6104a0848484610ecd565b33600081815260ca6020908152604080832073ffffffffffffffffffffffffffffffffffffffff87168452909152812054909190610473908290869061054b908790611e83565b610c03565b6040518060400160405280600c81526020017f70726f746f5f62726f6b6572000000000000000000000000000000000000000081525061059181600061047f565b73ffffffffffffffffffffffffffffffffffffffff163373ffffffffffffffffffffffffffffffffffffffff16146105f5576040517f1b0b999e00000000000000000000000000000000000000000000000000000000815260040160405180910390fd5b73ffffffffffffffffffffffffffffffffffffffff8316610642576040517f87c1a45700000000000000000000000000000000000000000000000000000000815260040160405180910390fd5b61064c8383610ee6565b6040805173ffffffffffffffffffffffffffffffffffffffff85168152602081018490527f0f6798a560793a54c3bcfe86a93cde1e73087d944c0ea20544137d412139688591015b60405180910390a1505050565b33600090815261012d602052604090205460ff16156106ec576040517f71dda21300000000000000000000000000000000000000000000000000000000815260040160405180910390fd5b33600090815261012d6020526040902080547fffffffffffffffffffffffffffffffffffffffffffffffffffffffffffffff001660011790556107518161073560ce5460ff1690565b61074090600a611f7a565b61074c90612710611f89565b610ee6565b50565b600054610100900460ff16158080156107745750600054600160ff909116105b8061078e5750303b15801561078e575060005460ff166001145b6108055760405162461bcd60e51b815260206004820152602e60248201527f496e697469616c697a61626c653a20636f6e747261637420697320616c72656160448201527f647920696e697469616c697a656400000000000000000000000000000000000060648201526084015b60405180910390fd5b600080547fffffffffffffffffffffffffffffffffffffffffffffffffffffffffffffff00166001179055801561086357600080547fffffffffffffffffffffffffffffffffffffffffffffffffffffffffffff00ff166101001790555b61086c82610fa4565b61087884846012610fbd565b80156108db57600080547fffffffffffffffffffffffffffffffffffffffffffffffffffffffffffff00ff169055604051600181527f7f26b83ff96e1f2b6a682f133852f6798a09c465da95921460cefb38474024989060200160405180910390a15b50505050565b6108e961104a565b6108f360006110b1565b565b606060cd80546103e290611e01565b6040518060400160405280600c81526020017f70726f746f5f62726f6b6572000000000000000000000000000000000000000081525061094581600061047f565b73ffffffffffffffffffffffffffffffffffffffff163373ffffffffffffffffffffffffffffffffffffffff16146109a9576040517f1b0b999e00000000000000000000000000000000000000000000000000000000815260040160405180910390fd5b73ffffffffffffffffffffffffffffffffffffffff83166109f6576040517f87c1a45700000000000000000000000000000000000000000000000000000000815260040160405180910390fd5b610a008383611128565b6040805173ffffffffffffffffffffffffffffffffffffffff85168152602081018490527fcc16f5dbb4873280815c1ee09dbd06736cffcc184412cf7a71a0fdb75d397ca59101610694565b33600081815260ca6020908152604080832073ffffffffffffffffffffffffffffffffffffffff8716845290915281205490919083811015610af65760405162461bcd60e51b815260206004820152602560248201527f45524332303a2064656372656173656420616c6c6f77616e63652062656c6f7760448201527f207a65726f00000000000000000000000000000000000000000000000000000060648201526084016107fc565b610b038286868403610c03565b506001949350505050565b60003073ffffffffffffffffffffffffffffffffffffffff841603610b5f576040517f87c1a45700000000000000000000000000000000000000000000000000000000815260040160405180910390fd5b61048c8383611299565b610b7161104a565b73ffffffffffffffffffffffffffffffffffffffff8116610bfa5760405162461bcd60e51b815260206004820152602660248201527f4f776e61626c653a206e6577206f776e657220697320746865207a65726f206160448201527f646472657373000000000000000000000000000000000000000000000000000060648201526084016107fc565b610751816110b1565b73ffffffffffffffffffffffffffffffffffffffff8316610c8b5760405162461bcd60e51b8152602060048201526024808201527f45524332303a20617070726f76652066726f6d20746865207a65726f2061646460448201527f726573730000000000000000000000000000000000000000000000000000000060648201526084016107fc565b73ffffffffffffffffffffffffffffffffffffffff8216610d145760405162461bcd60e51b815260206004820152602260248201527f45524332303a20617070726f766520746f20746865207a65726f20616464726560448201527f737300000000000000000000000000000000000000000000000000000000000060648201526084016107fc565b73ffffffffffffffffffffffffffffffffffffffff838116600081815260ca602090815260408083209487168084529482529182902085905590518481527f8c5be1e5ebec7d5bd14f71427d1e84f3dd0314c0f7b2291e5b200ac8c7c3b925910160405180910390a3505050565b600080610d8e856112a7565b84604051602001610da0929190611fa0565b604080517fffffffffffffffffffffffffffffffffffffffffffffffffffffffffffffffe0818403018152908290526097547fbf40fac100000000000000000000000000000000000000000000000000000000835290925073ffffffffffffffffffffffffffffffffffffffff169063bf40fac190610e23908490600401611abf565b602060405180830381865afa158015610e40573d6000803e3d6000fd5b505050506040513d601f19601f82011682018060405250810190610e649190611ff8565b915082610ec55760405173ffffffffffffffffffffffffffffffffffffffff8316151590610e96908390602001612015565b60405160208183030381529060405290610ec35760405162461bcd60e51b81526004016107fc9190611abf565b505b509392505050565b600033610edb858285611347565b610b038585856113e0565b73ffffffffffffffffffffffffffffffffffffffff8216610f495760405162461bcd60e51b815260206004820152601f60248201527f45524332303a206d696e7420746f20746865207a65726f20616464726573730060448201526064016107fc565b8060cb6000828254610f5b9190611e83565b909155505073ffffffffffffffffffffffffffffffffffffffff8216600090815260c9602052604081208054839290610f95908490611e83565b90915550610fa09050565b5050565b610fac611645565b610fb46116ca565b6107518161174f565b600054610100900460ff1661103a5760405162461bcd60e51b815260206004820152602b60248201527f496e697469616c697a61626c653a20636f6e7472616374206973206e6f74206960448201527f6e697469616c697a696e6700000000000000000000000000000000000000000060648201526084016107fc565b6110458383836117e3565b505050565b60655473ffffffffffffffffffffffffffffffffffffffff1633146108f35760405162461bcd60e51b815260206004820181905260248201527f4f776e61626c653a2063616c6c6572206973206e6f7420746865206f776e657260448201526064016107fc565b6065805473ffffffffffffffffffffffffffffffffffffffff8381167fffffffffffffffffffffffff0000000000000000000000000000000000000000831681179093556040519116919082907f8be0079c531659141344cd1fd0a4f28419497f9722a3daafe3b4186f6b6457e090600090a35050565b73ffffffffffffffffffffffffffffffffffffffff82166111b15760405162461bcd60e51b815260206004820152602160248201527f45524332303a206275726e2066726f6d20746865207a65726f2061646472657360448201527f730000000000000000000000000000000000000000000000000000000000000060648201526084016107fc565b73ffffffffffffffffffffffffffffffffffffffff8216600090815260c960205260409020548181101561124d5760405162461bcd60e51b815260206004820152602260248201527f45524332303a206275726e20616d6f756e7420657863656564732062616c616e60448201527f636500000000000000000000000000000000000000000000000000000000000060648201526084016107fc565b73ffffffffffffffffffffffffffffffffffffffff8316600090815260c960205260408120838303905560cb805484929061128990849061205a565b9091555061104590508360008483565b6000336104738185856113e0565b606060006112b4836118b0565b600101905060008167ffffffffffffffff8111156112d4576112d4611b5e565b6040519080825280601f01601f1916602001820160405280156112fe576020820181803683370190505b5090508181016020015b600019017f3031323334353637383961626364656600000000000000000000000000000000600a86061a8153600a850494508461130857509392505050565b73ffffffffffffffffffffffffffffffffffffffff838116600090815260ca602090815260408083209386168352929052205460001981146108db57818110156113d35760405162461bcd60e51b815260206004820152601d60248201527f45524332303a20696e73756666696369656e7420616c6c6f77616e636500000060448201526064016107fc565b6108db8484848403610c03565b73ffffffffffffffffffffffffffffffffffffffff83166114695760405162461bcd60e51b815260206004820152602560248201527f45524332303a207472616e736665722066726f6d20746865207a65726f20616460448201527f647265737300000000000000000000000000000000000000000000000000000060648201526084016107fc565b73ffffffffffffffffffffffffffffffffffffffff82166114f25760405162461bcd60e51b815260206004820152602360248201527f45524332303a207472616e7366657220746f20746865207a65726f206164647260448201527f657373000000000000000000000000000000000000000000000000000000000060648201526084016107fc565b73ffffffffffffffffffffffffffffffffffffffff8316600090815260c960205260409020548181101561158e5760405162461bcd60e51b815260206004820152602660248201527f45524332303a207472616e7366657220616d6f756e742065786365656473206260448201527f616c616e6365000000000000000000000000000000000000000000000000000060648201526084016107fc565b73ffffffffffffffffffffffffffffffffffffffff808516600090815260c960205260408082208585039055918516815290812080548492906115d2908490611e83565b925050819055508273ffffffffffffffffffffffffffffffffffffffff168473ffffffffffffffffffffffffffffffffffffffff167fddf252ad1be2c89b69c2b068fc378daa952ba7f163c4a11628f55a4df523b3ef8460405161163891815260200190565b60405180910390a36108db565b600054610100900460ff166116c25760405162461bcd60e51b815260206004820152602b60248201527f496e697469616c697a61626c653a20636f6e7472616374206973206e6f74206960448201527f6e697469616c697a696e6700000000000000000000000000000000000000000060648201526084016107fc565b6108f3611992565b600054610100900460ff166117475760405162461bcd60e51b815260206004820152602b60248201527f496e697469616c697a61626c653a20636f6e7472616374206973206e6f74206960448201527f6e697469616c697a696e6700000000000000000000000000000000000000000060648201526084016107fc565b6108f3611a15565b73ffffffffffffffffffffffffffffffffffffffff811661179c576040517f9a109b0a00000000000000000000000000000000000000000000000000000000815260040160405180910390fd5b609780547fffffffffffffffffffffffff00000000000000000000000000000000000000001673ffffffffffffffffffffffffffffffffffffffff92909216919091179055565b600054610100900460ff166118605760405162461bcd60e51b815260206004820152602b60248201527f496e697469616c697a61626c653a20636f6e7472616374206973206e6f74206960448201527f6e697469616c697a696e6700000000000000000000000000000000000000000060648201526084016107fc565b60cc61186c84826120bb565b5060cd61187983826120bb565b5060ce80547fffffffffffffffffffffffffffffffffffffffffffffffffffffffffffffff001660ff929092169190911790555050565b6000807a184f03e93ff9f4daa797ed6e38ed64bf6a1f01000000000000000083106118f9577a184f03e93ff9f4daa797ed6e38ed64bf6a1f010000000000000000830492506040015b6d04ee2d6d415b85acef81000000008310611925576d04ee2d6d415b85acef8100000000830492506020015b662386f26fc10000831061194357662386f26fc10000830492506010015b6305f5e100831061195b576305f5e100830492506008015b612710831061196f57612710830492506004015b60648310611981576064830492506002015b600a83106104795760010192915050565b600054610100900460ff16611a0f5760405162461bcd60e51b815260206004820152602b60248201527f496e697469616c697a61626c653a20636f6e7472616374206973206e6f74206960448201527f6e697469616c697a696e6700000000000000000000000000000000000000000060648201526084016107fc565b60018055565b600054610100900460ff16611a925760405162461bcd60e51b815260206004820152602b60248201527f496e697469616c697a61626c653a20636f6e7472616374206973206e6f74206960448201527f6e697469616c697a696e6700000000000000000000000000000000000000000060648201526084016107fc565b6108f3336110b1565b60005b83811015611ab6578181015183820152602001611a9e565b50506000910152565b6020815260008251806020840152611ade816040850160208701611a9b565b601f017fffffffffffffffffffffffffffffffffffffffffffffffffffffffffffffffe0169190910160400192915050565b73ffffffffffffffffffffffffffffffffffffffff8116811461075157600080fd5b60008060408385031215611b4557600080fd5b8235611b5081611b10565b946020939093013593505050565b7f4e487b7100000000000000000000000000000000000000000000000000000000600052604160045260246000fd5b600082601f830112611b9e57600080fd5b813567ffffffffffffffff80821115611bb957611bb9611b5e565b604051601f83017fffffffffffffffffffffffffffffffffffffffffffffffffffffffffffffffe0908116603f01168101908282118183101715611bff57611bff611b5e565b81604052838152866020858801011115611c1857600080fd5b836020870160208301376000602085830101528094505050505092915050565b80358015158114611c4857600080fd5b919050565b60008060408385031215611c6057600080fd5b823567ffffffffffffffff811115611c7757600080fd5b611c8385828601611b8d565b925050611c9260208401611c38565b90509250929050565b600080600060608486031215611cb057600080fd5b83359250602084013567ffffffffffffffff811115611cce57600080fd5b611cda86828701611b8d565b925050611ce960408501611c38565b90509250925092565b600080600060608486031215611d0757600080fd5b8335611d1281611b10565b92506020840135611d2281611b10565b929592945050506040919091013590565b600060208284031215611d4557600080fd5b813561048c81611b10565b600080600060608486031215611d6557600080fd5b833567ffffffffffffffff80821115611d7d57600080fd5b611d8987838801611b8d565b94506020860135915080821115611d9f57600080fd5b50611dac86828701611b8d565b9250506040840135611dbd81611b10565b809150509250925092565b60008060408385031215611ddb57600080fd5b8235611de681611b10565b91506020830135611df681611b10565b809150509250929050565b600181811c90821680611e1557607f821691505b602082108103611e4e577f4e487b7100000000000000000000000000000000000000000000000000000000600052602260045260246000fd5b50919050565b7f4e487b7100000000000000000000000000000000000000000000000000000000600052601160045260246000fd5b8082018082111561047957610479611e54565b600181815b80851115611ed1578160001904821115611eb757611eb7611e54565b80851615611ec457918102915b93841c9390800290611e9b565b509250929050565b600082611ee857506001610479565b81611ef557506000610479565b8160018114611f0b5760028114611f1557611f31565b6001915050610479565b60ff841115611f2657611f26611e54565b50506001821b610479565b5060208310610133831016604e8410600b8410161715611f54575081810a610479565b611f5e8383611e96565b8060001904821115611f7257611f72611e54565b029392505050565b600061048c60ff841683611ed9565b808202811582820484141761047957610479611e54565b60008351611fb2818460208801611a9b565b7f2e000000000000000000000000000000000000000000000000000000000000009083019081528351611fec816001840160208801611a9b565b01600101949350505050565b60006020828403121561200a57600080fd5b815161048c81611b10565b7f41523a7a65726f416464723a000000000000000000000000000000000000000081526000825161204d81600c850160208701611a9b565b91909101600c0192915050565b8181038181111561047957610479611e54565b601f82111561104557600081815260208120601f850160051c810160208610156120945750805b601f850160051c820191505b818110156120b3578281556001016120a0565b505050505050565b815167ffffffffffffffff8111156120d5576120d5611b5e565b6120e9816120e38454611e01565b8461206d565b602080601f83116001811461211e57600084156121065750858301515b600019600386901b1c1916600185901b1785556120b3565b6000858152602081207fffffffffffffffffffffffffffffffffffffffffffffffffffffffffffffffe08616915b8281101561216b5788860151825594840194600190910190840161214c565b50858210156121895787850151600019600388901b60f8161c191681555b5050505050600190811b0190555056fea2646970667358221220fcb47ddda7183eefc401fffa5968d41ab0500d580e6f5f0498774e40a15b461464736f6c63430008120033",
  "linkReferences": {},
  "deployedLinkReferences": {}
}